9999999M090601201327    Copyright 2013 National Council for Prescription Drug Programs, All Rights Reserved                                                                                                                                                                                                                                                                                                                                                                                                         
000018DICKSON APOTHECARY                 104 HIGHWAY 70 E                                                                                              DICKSON                       TN3705520346154465585     6154467770          621433631      SHELLY WINSTEAD               COO                           SWINSTEAD@COMPHARMCARE.COM                        00000000                                                                                                                                            
000026PROGRESSIVE PHARMACIES             43155 W 9 MILE RD STE 200                                                                                     NOVI                          MI4837541902483803610     2483057658          38-0714700     TJ MCCLURE                    DIRECTOR                      TJMCCLURE@PROGRESSIVEPHARMACIES.COM               00000000                                                                                                                                            
000034CORPORATE REMIT                    401 FORD STREET                                        P.O. BOX 151                                           FORD CITY                     PA16226    7247631201012507247634040          251258407      DAVID CIPPEL                  PRESIDENT                     JAMIED@KLINGENSMITHS.COM                          00000000                                                                                                                                            
000042LONE STAR                          704 FM 2854                                                                                                   CONROE                        TX77301    9365235227     9365394019                         VALERIE POWELL                PHARMACY DIRECTOR             VPOWELL@LONESTARFAMILY.ORG                        00000000                                                                                                                                            
000059TAR HEEL DRUG                      316 S MAIN ST                                                                                                 GRAHAM                        NC2725333203362272093     3362277401          560732405      JAMES DEMING                  PRESIDENT                     JIM@TARHEELDRUG.COM                               00000000                                                                                                                                            
000067CAROLINA COUPON CLEARING INC       2601 PILGRIM CT                                                                                               WINSTON SALEM                 NC2710652383367703524     3367701996          56-1275336     CONNIE JONES                  OPERATIONS PROJECT MANAGER    CONNIE.JONES@INMAR.COM                            00000000                                                                                                                                            
000075SCRIPTPRO                          5828 REEDS RD                                                                                                 MISSION                       KS6620227409133841008                         74-2838351     EILEEN RAINIS                 DIRECTOR, THIRD PARTY ADMIN   ERAINIS@SCRIPTPRO.COM                             00000000                                                                                                                                            
000083KCCC SITES                         9200 INDIAN CREEK PKWY BLDG 9 # 300                                                                           OVERLAND PARK                 KS6621020369135414651     9135775851          481202402      RICK COULDRY                  DIRECTOR OF PHARMACY          RCOULDRY@KUMC.ORG                                 00000000                                                                                                                                            
000091OUTPATIENT PHARMACY AND WESTWOOD   PO BOX 2199                                                                                                   SHAWNEE MISSION               KS6620111999135414651     9135775851          481202402      RICK COULDRY                  DIRECTOR OF PHARMACY          RCOULDRY@KUMC.ORG                                 00000000                                                                                                                                            
000109PROVIDERPAY REMIT                  3949 S 700 E STE 320                                                                                          SALT LAKE CITY                UT8410724438017164857     8017164872          263458261      ALLISON RILEY                 ACCOUNT SERVICES              ACCOUNTSETUP@PROVIDERPAY.COM                      00000000                                                                                                                                            
000117COMPLETE CLAIMS PROCESSING INC     2980 N BEVERLY GLEN CIR STE 301                                                                               LOS ANGELES                   CA9007717353104749809     8884318819                         DEBBIE BULLIAS                MEDICAL LIAISON DIRECTOR      DEB@PTLCENTRAL.COM                                00000000                                                                                                                                            
000125FRUTH PHARMACY INC                 PO BOX 791420                                                                                                 BALTIMORE                     MD2127914203046751612102  3046757338          550681886      LUCILLE CASSELL               TREASURER                     SCASSELL@FRUTHPHARMACY.COM                        00000000                                                                                                                                            
000133CAROLINA SERVICES                  2650 PILGRIM CT                                        ATTN: PRISM OPERATIONS                                 WINSTON SALEM                 NC2710652383036028535                         84-1343242     JASON ATLAS                   DIRECTOR OF OUTPATIENT PHARAMCJASON.ATLAS@DHHA.ORG                              00000000                                                                                                                                            
000141GALAXY MEDS INC                    6742 FOREST HILL BLVD STE 272                                                                                 GREENACRES                    FL3341333215617131194     8883162279          271559835      CARL JOLICOEUR                PRESIDENT CEO                 CARL@GALAXYMEDSRX.COM                             00000000                                                                                                                                            
000158SAVE MART SUPERMARKETS             P.O. BOX 4278                                                                                                 MODESTO                       CA95352    20957462995201 2095773916          941245496      JEAN MARKMAN                  ACCTS RECEIVABLES MANAGER     JMARKMAN@SAVEMART.COM                             00000000                                                                                                                                            
000166BALLS FOUR B CORP                  5300 SPEAKER RD                                                                                               KANSAS CITY                   KS6610610509135731294     9135518580          480894902      LISA MARTIN                   3RD PARTY ADMIN.              LISA.MARTIN@BALLSFOODS.COM                        00000000                                                                                                                                            
000174ACCURATE BUSINESS SOLUTIONS        1522 CONSTITUTION BLVD STE 333                                                                                SALINAS                       CA9390538033526879393     5624151210          271589015      MAULESH PATEL                 PRESIDENT                     ENCOMPASSMED@GMAIL.COM                            00000000                                                                                                                                            
000182VERIDIKAL                          PO BOX 3106                                                                                                   SCOTTSDALE                    AZ852713106480636183013   4806368700          27-1313732     LISA M. RIDING                PRINCIPAL                     LISARIDING@VERIDIKAL.COM                          00000000                                                                                                                                            
000190THE RESOURCE CENTER PHARMACY       200 DUNHAM AVE                                                                                                JAMESTOWN                     NY1470125287166611001                         16-0850407     SUZETTE SMITH                 FINANCE MANAGER               SUZETTE.SMITH@RESOURCECENTER.ORG                  00000000                                                                                                                                            
000208PPOK RXSELECT ERECON               PO BOX 18204                                                                                                  OKLAHOMA CITY                 OK73154    4055575700     4055252196          731250178      LONNY WILSON                  CEO                           PPOK@PPOK.COM                                     00000000                                                                                                                                            
000216SPORTPHARM                         5481 COMMERCIAL DR STE B                                                                                      HUNTINGTON BEACH              CA9264912597144518425                         26-3512260     CAROL BOUTERSE                DIRECTOR                      CAROL@SPORTPHARM.COM                              00000000                                                                                                                                            
000224CHRIS BONNER                       2320 5TH ST N                                                                                                 COLUMBUS                      MS3970522146623284300     6623284306          46-0635216     CHRIS BONNER                  OWNER                         CHRISBONNER1@HOTMAIL.COM                          00000000                                                                                                                                            
000232RESOLVERX                          5601 SHIRLEY PARK DR                                                                                          BESSEMER                      AL35022340220527710774    2052771087                         KAREN CHRISTIAN               APNS MANAGER                  KARENC@APCINET.COM                                00000000                                                                                                                                            
000240MSKCC RETAIL PHARMACY              PO BOX 026447                                                                                                 NEW YORK                      NY1008764472126398464     6462272465          131924236      SUSAN MURILLO                 SUPERVISING PHARMACIST        MURILLOS@MSKCC.ORG                                00000000                                                                                                                                            
000257PRESBYTERIAN MEDICAL SERVICES INC  PO BOX 2267                                                                                                   SANTA FE                      NM8750422675059825565     5059868299          850206810      WESLEY LANGNER                DIRECTOR OF PHARMACY          WES_LANGNER@PMSNET.ORG                            00000000                                                                                                                                            
000265UCSD AMBULATORY CARE PHARMACY      PO BOX 748388                                                                                                 LOS ANGELES                   CA9007483886195436194     6195435829          371696000      GARY HAGNEY                   DIRECTOR, UCSD AMCARE PHARMACYHGAGNEY@UCSD.EDU                                  00000000                                                                                                                                            
000273UCSD MEDICAL CENTER PHARMACY       200 W ARBOR DR                                         MAIL CODE 8765                                         SAN DIEGO                     CA9210319116195436194     6195435823          330599494      GARY HAGNEY                   DIRECTOR,UCSD AMCARE PHARMACY GHAGNEY@UCSD.EDU                                  00000000                                                                                                                                            
9999999M090601201327    Copyright 2013 National Council for Prescription Drug Programs, All Rights Reserved                                                                                                                                                                                                                                                                                                                                                                                                         
